{
  "contractName": "ClassicDelta",
  "abi": [
    {
      "constant": true,
      "inputs": [
        {
          "name": "",
          "type": "address"
        },
        {
          "name": "",
          "type": "bytes32"
        }
      ],
      "name": "orderFills",
      "outputs": [
        {
          "name": "",
          "type": "uint256"
        }
      ],
      "payable": false,
      "stateMutability": "view",
      "type": "function"
    },
    {
      "constant": true,
      "inputs": [
        {
          "name": "",
          "type": "address"
        },
        {
          "name": "",
          "type": "address"
        }
      ],
      "name": "tokens",
      "outputs": [
        {
          "name": "",
          "type": "uint256"
        }
      ],
      "payable": false,
      "stateMutability": "view",
      "type": "function"
    },
    {
      "constant": true,
      "inputs": [],
      "name": "feeMake",
      "outputs": [
        {
          "name": "",
          "type": "uint256"
        }
      ],
      "payable": false,
      "stateMutability": "view",
      "type": "function"
    },
    {
      "constant": true,
      "inputs": [],
      "name": "feeAccount",
      "outputs": [
        {
          "name": "",
          "type": "address"
        }
      ],
      "payable": false,
      "stateMutability": "view",
      "type": "function"
    },
    {
      "constant": true,
      "inputs": [],
      "name": "feeRebate",
      "outputs": [
        {
          "name": "",
          "type": "uint256"
        }
      ],
      "payable": false,
      "stateMutability": "view",
      "type": "function"
    },
    {
      "constant": true,
      "inputs": [],
      "name": "owner",
      "outputs": [
        {
          "name": "",
          "type": "address"
        }
      ],
      "payable": false,
      "stateMutability": "view",
      "type": "function"
    },
    {
      "constant": true,
      "inputs": [
        {
          "name": "",
          "type": "address"
        },
        {
          "name": "",
          "type": "bytes32"
        }
      ],
      "name": "orders",
      "outputs": [
        {
          "name": "",
          "type": "bool"
        }
      ],
      "payable": false,
      "stateMutability": "view",
      "type": "function"
    },
    {
      "constant": true,
      "inputs": [],
      "name": "feeTake",
      "outputs": [
        {
          "name": "",
          "type": "uint256"
        }
      ],
      "payable": false,
      "stateMutability": "view",
      "type": "function"
    },
    {
      "constant": false,
      "inputs": [
        {
          "name": "newOwner",
          "type": "address"
        }
      ],
      "name": "transferOwnership",
      "outputs": [],
      "payable": false,
      "stateMutability": "nonpayable",
      "type": "function"
    },
    {
      "constant": true,
      "inputs": [],
      "name": "accountLevelsAddr",
      "outputs": [
        {
          "name": "",
          "type": "address"
        }
      ],
      "payable": false,
      "stateMutability": "view",
      "type": "function"
    },
    {
      "inputs": [
        {
          "name": "feeAccount_",
          "type": "address"
        },
        {
          "name": "accountLevelsAddr_",
          "type": "address"
        },
        {
          "name": "feeMake_",
          "type": "uint256"
        },
        {
          "name": "feeTake_",
          "type": "uint256"
        },
        {
          "name": "feeRebate_",
          "type": "uint256"
        }
      ],
      "payable": false,
      "stateMutability": "nonpayable",
      "type": "constructor"
    },
    {
      "payable": false,
      "stateMutability": "nonpayable",
      "type": "fallback"
    },
    {
      "anonymous": false,
      "inputs": [
        {
          "indexed": false,
          "name": "tokenGet",
          "type": "address"
        },
        {
          "indexed": false,
          "name": "amountGet",
          "type": "uint256"
        },
        {
          "indexed": false,
          "name": "tokenGive",
          "type": "address"
        },
        {
          "indexed": false,
          "name": "amountGive",
          "type": "uint256"
        },
        {
          "indexed": false,
          "name": "expires",
          "type": "uint256"
        },
        {
          "indexed": false,
          "name": "nonce",
          "type": "uint256"
        },
        {
          "indexed": false,
          "name": "user",
          "type": "address"
        }
      ],
      "name": "Order",
      "type": "event"
    },
    {
      "anonymous": false,
      "inputs": [
        {
          "indexed": false,
          "name": "tokenGet",
          "type": "address"
        },
        {
          "indexed": false,
          "name": "amountGet",
          "type": "uint256"
        },
        {
          "indexed": false,
          "name": "tokenGive",
          "type": "address"
        },
        {
          "indexed": false,
          "name": "amountGive",
          "type": "uint256"
        },
        {
          "indexed": false,
          "name": "expires",
          "type": "uint256"
        },
        {
          "indexed": false,
          "name": "nonce",
          "type": "uint256"
        },
        {
          "indexed": false,
          "name": "user",
          "type": "address"
        },
        {
          "indexed": false,
          "name": "v",
          "type": "uint8"
        },
        {
          "indexed": false,
          "name": "r",
          "type": "bytes32"
        },
        {
          "indexed": false,
          "name": "s",
          "type": "bytes32"
        }
      ],
      "name": "Cancel",
      "type": "event"
    },
    {
      "anonymous": false,
      "inputs": [
        {
          "indexed": false,
          "name": "tokenGet",
          "type": "address"
        },
        {
          "indexed": false,
          "name": "amountGet",
          "type": "uint256"
        },
        {
          "indexed": false,
          "name": "tokenGive",
          "type": "address"
        },
        {
          "indexed": false,
          "name": "amountGive",
          "type": "uint256"
        },
        {
          "indexed": false,
          "name": "get",
          "type": "address"
        },
        {
          "indexed": false,
          "name": "give",
          "type": "address"
        }
      ],
      "name": "Trade",
      "type": "event"
    },
    {
      "anonymous": false,
      "inputs": [
        {
          "indexed": false,
          "name": "token",
          "type": "address"
        },
        {
          "indexed": false,
          "name": "user",
          "type": "address"
        },
        {
          "indexed": false,
          "name": "amount",
          "type": "uint256"
        },
        {
          "indexed": false,
          "name": "balance",
          "type": "uint256"
        }
      ],
      "name": "Deposit",
      "type": "event"
    },
    {
      "anonymous": false,
      "inputs": [
        {
          "indexed": false,
          "name": "token",
          "type": "address"
        },
        {
          "indexed": false,
          "name": "user",
          "type": "address"
        },
        {
          "indexed": false,
          "name": "amount",
          "type": "uint256"
        },
        {
          "indexed": false,
          "name": "balance",
          "type": "uint256"
        }
      ],
      "name": "Withdraw",
      "type": "event"
    },
    {
      "anonymous": false,
      "inputs": [
        {
          "indexed": true,
          "name": "previousOwner",
          "type": "address"
        },
        {
          "indexed": true,
          "name": "newOwner",
          "type": "address"
        }
      ],
      "name": "OwnershipTransferred",
      "type": "event"
    },
    {
      "constant": false,
      "inputs": [
        {
          "name": "accountLevelsAddr_",
          "type": "address"
        }
      ],
      "name": "changeAccountLevelsAddr",
      "outputs": [],
      "payable": false,
      "stateMutability": "nonpayable",
      "type": "function"
    },
    {
      "constant": false,
      "inputs": [
        {
          "name": "feeAccount_",
          "type": "address"
        }
      ],
      "name": "changeFeeAccount",
      "outputs": [],
      "payable": false,
      "stateMutability": "nonpayable",
      "type": "function"
    },
    {
      "constant": false,
      "inputs": [
        {
          "name": "feeMake_",
          "type": "uint256"
        }
      ],
      "name": "changeFeeMake",
      "outputs": [],
      "payable": false,
      "stateMutability": "nonpayable",
      "type": "function"
    },
    {
      "constant": false,
      "inputs": [
        {
          "name": "feeTake_",
          "type": "uint256"
        }
      ],
      "name": "changeFeeTake",
      "outputs": [],
      "payable": false,
      "stateMutability": "nonpayable",
      "type": "function"
    },
    {
      "constant": false,
      "inputs": [
        {
          "name": "feeRebate_",
          "type": "uint256"
        }
      ],
      "name": "changeFeeRebate",
      "outputs": [],
      "payable": false,
      "stateMutability": "nonpayable",
      "type": "function"
    },
    {
      "constant": false,
      "inputs": [],
      "name": "deposit",
      "outputs": [],
      "payable": true,
      "stateMutability": "payable",
      "type": "function"
    },
    {
      "constant": false,
      "inputs": [
        {
          "name": "amount",
          "type": "uint256"
        }
      ],
      "name": "withdraw",
      "outputs": [],
      "payable": false,
      "stateMutability": "nonpayable",
      "type": "function"
    },
    {
      "constant": false,
      "inputs": [
        {
          "name": "token",
          "type": "address"
        },
        {
          "name": "amount",
          "type": "uint256"
        }
      ],
      "name": "depositToken",
      "outputs": [],
      "payable": false,
      "stateMutability": "nonpayable",
      "type": "function"
    },
    {
      "constant": false,
      "inputs": [
        {
          "name": "token",
          "type": "address"
        },
        {
          "name": "amount",
          "type": "uint256"
        }
      ],
      "name": "withdrawToken",
      "outputs": [],
      "payable": false,
      "stateMutability": "nonpayable",
      "type": "function"
    },
    {
      "constant": true,
      "inputs": [
        {
          "name": "token",
          "type": "address"
        },
        {
          "name": "user",
          "type": "address"
        }
      ],
      "name": "balanceOf",
      "outputs": [
        {
          "name": "",
          "type": "uint256"
        }
      ],
      "payable": false,
      "stateMutability": "view",
      "type": "function"
    },
    {
      "constant": false,
      "inputs": [
        {
          "name": "tokenGet",
          "type": "address"
        },
        {
          "name": "amountGet",
          "type": "uint256"
        },
        {
          "name": "tokenGive",
          "type": "address"
        },
        {
          "name": "amountGive",
          "type": "uint256"
        },
        {
          "name": "expires",
          "type": "uint256"
        },
        {
          "name": "nonce",
          "type": "uint256"
        }
      ],
      "name": "order",
      "outputs": [],
      "payable": false,
      "stateMutability": "nonpayable",
      "type": "function"
    },
    {
      "constant": false,
      "inputs": [
        {
          "name": "tokenGet",
          "type": "address"
        },
        {
          "name": "amountGet",
          "type": "uint256"
        },
        {
          "name": "tokenGive",
          "type": "address"
        },
        {
          "name": "amountGive",
          "type": "uint256"
        },
        {
          "name": "expires",
          "type": "uint256"
        },
        {
          "name": "nonce",
          "type": "uint256"
        },
        {
          "name": "user",
          "type": "address"
        },
        {
          "name": "v",
          "type": "uint8"
        },
        {
          "name": "r",
          "type": "bytes32"
        },
        {
          "name": "s",
          "type": "bytes32"
        },
        {
          "name": "amount",
          "type": "uint256"
        }
      ],
      "name": "trade",
      "outputs": [],
      "payable": false,
      "stateMutability": "nonpayable",
      "type": "function"
    },
    {
      "constant": true,
      "inputs": [
        {
          "name": "tokenGet",
          "type": "address"
        },
        {
          "name": "amountGet",
          "type": "uint256"
        },
        {
          "name": "tokenGive",
          "type": "address"
        },
        {
          "name": "amountGive",
          "type": "uint256"
        },
        {
          "name": "expires",
          "type": "uint256"
        },
        {
          "name": "nonce",
          "type": "uint256"
        },
        {
          "name": "user",
          "type": "address"
        },
        {
          "name": "v",
          "type": "uint8"
        },
        {
          "name": "r",
          "type": "bytes32"
        },
        {
          "name": "s",
          "type": "bytes32"
        },
        {
          "name": "amount",
          "type": "uint256"
        },
        {
          "name": "sender",
          "type": "address"
        }
      ],
      "name": "testTrade",
      "outputs": [
        {
          "name": "",
          "type": "bool"
        }
      ],
      "payable": false,
      "stateMutability": "view",
      "type": "function"
    },
    {
      "constant": true,
      "inputs": [
        {
          "name": "tokenGet",
          "type": "address"
        },
        {
          "name": "amountGet",
          "type": "uint256"
        },
        {
          "name": "tokenGive",
          "type": "address"
        },
        {
          "name": "amountGive",
          "type": "uint256"
        },
        {
          "name": "expires",
          "type": "uint256"
        },
        {
          "name": "nonce",
          "type": "uint256"
        },
        {
          "name": "user",
          "type": "address"
        },
        {
          "name": "v",
          "type": "uint8"
        },
        {
          "name": "r",
          "type": "bytes32"
        },
        {
          "name": "s",
          "type": "bytes32"
        }
      ],
      "name": "availableVolume",
      "outputs": [
        {
          "name": "",
          "type": "uint256"
        }
      ],
      "payable": false,
      "stateMutability": "view",
      "type": "function"
    },
    {
      "constant": true,
      "inputs": [
        {
          "name": "tokenGet",
          "type": "address"
        },
        {
          "name": "amountGet",
          "type": "uint256"
        },
        {
          "name": "tokenGive",
          "type": "address"
        },
        {
          "name": "amountGive",
          "type": "uint256"
        },
        {
          "name": "expires",
          "type": "uint256"
        },
        {
          "name": "nonce",
          "type": "uint256"
        },
        {
          "name": "user",
          "type": "address"
        },
        {
          "name": "",
          "type": "uint8"
        },
        {
          "name": "",
          "type": "bytes32"
        },
        {
          "name": "",
          "type": "bytes32"
        }
      ],
      "name": "amountFilled",
      "outputs": [
        {
          "name": "",
          "type": "uint256"
        }
      ],
      "payable": false,
      "stateMutability": "view",
      "type": "function"
    },
    {
      "constant": false,
      "inputs": [
        {
          "name": "tokenGet",
          "type": "address"
        },
        {
          "name": "amountGet",
          "type": "uint256"
        },
        {
          "name": "tokenGive",
          "type": "address"
        },
        {
          "name": "amountGive",
          "type": "uint256"
        },
        {
          "name": "expires",
          "type": "uint256"
        },
        {
          "name": "nonce",
          "type": "uint256"
        },
        {
          "name": "v",
          "type": "uint8"
        },
        {
          "name": "r",
          "type": "bytes32"
        },
        {
          "name": "s",
          "type": "bytes32"
        }
      ],
      "name": "cancelOrder",
      "outputs": [],
      "payable": false,
      "stateMutability": "nonpayable",
      "type": "function"
    }
  ],
  "bytecode": "0x608060405234801561001057600080fd5b5060405160a08061175a8339810160409081528151602083015191830151606084015160809094015160008054600160a060020a03338116600160a060020a031992831617909255600180549583169582169590951790945560028054919095169316929092179092556003919091556004919091556005556116c2806100986000396000f3006080604052600436106101535763ffffffff7c01000000000000000000000000000000000000000000000000000000006000350416630a19b14a81146101655780630b927666146101b657806319774d43146101ea578063278b8c0e146102205780632e1a7d4d14610261578063338b5dea1461027957806346be96c31461029d578063508493bc146102e857806354d03b5c1461030f57806357786394146103275780635e1d7ae41461033c57806365e17c9d146103545780636c86888b1461038557806371ffcb16146103f3578063731c2f81146104145780638823a9c0146104295780638da5cb5b146104415780639e281a9814610456578063bb5f46291461047a578063c281309e1461049e578063d0e30db0146104b3578063e8f6bc2e146104bb578063f2fde38b146104dc578063f3412942146104fd578063f7888aec14610512578063fb6e155f14610539575b34801561015f57600080fd5b50600080fd5b34801561017157600080fd5b506101b4600160a060020a0360043581169060243590604435811690606435906084359060a4359060c4351660ff60e43516610104356101243561014435610584565b005b3480156101c257600080fd5b506101b4600160a060020a03600435811690602435906044351660643560843560a4356107f6565b3480156101f657600080fd5b5061020e600160a060020a0360043516602435610922565b60408051918252519081900360200190f35b34801561022c57600080fd5b506101b4600160a060020a03600435811690602435906044351660643560843560a43560ff60c4351660e4356101043561093f565b34801561026d57600080fd5b506101b4600435610b65565b34801561028557600080fd5b506101b4600160a060020a0360043516602435610b73565b3480156102a957600080fd5b5061020e600160a060020a0360043581169060243590604435811690606435906084359060a4359060c4351660ff60e435166101043561012435610c43565b3480156102f457600080fd5b5061020e600160a060020a0360043581169060243516610d10565b34801561031b57600080fd5b506101b4600435610d2d565b34801561033357600080fd5b5061020e610d5c565b34801561034857600080fd5b506101b4600435610d62565b34801561036057600080fd5b50610369610da1565b60408051600160a060020a039092168252519081900360200190f35b34801561039157600080fd5b506103df600160a060020a0360043581169060243590604435811690606435906084359060a4359060c43581169060ff60e43516906101043590610124359061014435906101643516610db0565b604080519115158252519081900360200190f35b3480156103ff57600080fd5b506101b4600160a060020a0360043516610e16565b34801561042057600080fd5b5061020e610e60565b34801561043557600080fd5b506101b4600435610e66565b34801561044d57600080fd5b50610369610ea5565b34801561046257600080fd5b506101b4600160a060020a0360043516602435610eb4565b34801561048657600080fd5b506103df600160a060020a0360043516602435610ed4565b3480156104aa57600080fd5b5061020e610ef4565b6101b4610efa565b3480156104c757600080fd5b506101b4600160a060020a0360043516610f07565b3480156104e857600080fd5b506101b4600160a060020a0360043516610f51565b34801561050957600080fd5b50610369610fe9565b34801561051e57600080fd5b5061020e600160a060020a0360043581169060243516610ff8565b34801561054557600080fd5b5061020e600160a060020a0360043581169060243590604435811690606435906084359060a4359060c4351660ff60e435166101043561012435611023565b604080516c01000000000000000000000000600160a060020a0330811682028352808f1682026014840152602883018e90528c16026048820152605c81018a9052607c8101899052609c8101889052905160009160029160bc808301926020929190829003018186865af1158015610600573d6000803e3d6000fd5b5050506040513d602081101561061557600080fd5b5051600160a060020a038716600090815260076020908152604080832084845290915290205490915060ff16806106f55750604080517f19457468657265756d205369676e6564204d6573736167653a0a3332000000008152601c8101839052815190819003603c018120600080835260208381018086529290925260ff89168385015260608301889052608083018790529251600160a060020a038a169360019360a08082019493601f198101939281900390910191865af11580156106e0573d6000803e3d6000fd5b50505060206040510351600160a060020a0316145b80156107015750874311155b80156107325750600160a060020a038616600090815260086020908152604080832084845290915290205482018b10155b151561073d57600080fd5b61074b8c8c8c8c8a87611276565b600160a060020a038616600090815260086020908152604080832084845290915290208054830190557f6effdda786735d5033bfad5f53e5131abcced9e52be6c507b62d639685fbed6d8c838c8e8d83028115156107a557fe5b60408051600160a060020a039687168152602081019590955292851684840152046060830152828a166080830152339290921660a082015290519081900360c00190a1505050505050505050505050565b604080516c01000000000000000000000000600160a060020a0330811682028352808a1682026014840152602883018990528716026048820152605c8101859052607c8101849052609c8101839052905160009160029160bc808301926020929190829003018186865af1158015610872573d6000803e3d6000fd5b5050506040513d602081101561088757600080fd5b5051600160a060020a033381166000818152600760209081526040808320868452825291829020805460ff1916600117905581518c851681529081018b905292891683820152606083018890526080830187905260a0830186905260c0830191909152519192507f3f7f2eda73683c21a15f9435af1028c93185b5f1fa38270762dc32be606b3e85919081900360e00190a150505050505050565b600860209081526000928352604080842090915290825290205481565b604080516c01000000000000000000000000600160a060020a0330811682028352808d1682026014840152602883018c90528a16026048820152605c8101889052607c8101879052609c8101869052905160009160029160bc808301926020929190829003018186865af11580156109bb573d6000803e3d6000fd5b5050506040513d60208110156109d057600080fd5b5051600160a060020a033316600090815260076020908152604080832084845290915290205490915060ff1680610ab05750604080517f19457468657265756d205369676e6564204d6573736167653a0a3332000000008152601c8101839052815190819003603c018120600080835260208381018086529290925260ff88168385015260608301879052608083018690529251600160a060020a0333169360019360a08082019493601f198101939281900390910191865af1158015610a9b573d6000803e3d6000fd5b50505060206040510351600160a060020a0316145b1515610abb57600080fd5b600160a060020a0333811660008181526008602090815260408083208684528252918290208d905581518e851681529081018d9052928b1683820152606083018a90526080830189905260a0830188905260c083019190915260ff861660e083015261010082018590526101208201849052517f1e0b760c386003e9cb9bcf4fcf3997886042859d9b6ed6320e804597fcdb28b0918190036101400190a150505050505050505050565b610b70600082611465565b50565b81600160a060020a0381161515610b8957600080fd5b604080517f23b872dd000000000000000000000000000000000000000000000000000000008152600160a060020a0333811660048301523081166024830152604482018590529151918516916323b872dd916064808201926020929091908290030181600087803b158015610bfd57600080fd5b505af1158015610c11573d6000803e3d6000fd5b505050506040513d6020811015610c2757600080fd5b50511515610c3457600080fd5b610c3e838361161a565b505050565b604080516c01000000000000000000000000600160a060020a0330811682028352808e1682026014840152602883018d90528b16026048820152605c8101899052607c8101889052609c81018790529051600091829160029160bc80820192602092909190829003018186865af1158015610cc2573d6000803e3d6000fd5b5050506040513d6020811015610cd757600080fd5b5051600160a060020a038716600090815260086020908152604080832084845290915290205492509050509a9950505050505050505050565b600660209081526000928352604080842090915290825290205481565b60005433600160a060020a03908116911614610d4857600080fd5b600354811115610d5757600080fd5b600355565b60035481565b60005433600160a060020a03908116911614610d7d57600080fd5b6005548110158015610d9157506004548111155b1515610d9c57600080fd5b600555565b600154600160a060020a031681565b600160a060020a03808d166000908152600660209081526040808320938516835292905290812054831180610df5575082610df38e8e8e8e8e8e8e8e8e8e611023565b105b15610e0257506000610e06565b5060015b9c9b505050505050505050505050565b60005433600160a060020a03908116911614610e3157600080fd5b6001805473ffffffffffffffffffffffffffffffffffffffff1916600160a060020a0392909216919091179055565b60055481565b60005433600160a060020a03908116911614610e8157600080fd5b6004548111158015610e9557506005548110155b1515610ea057600080fd5b600455565b600054600160a060020a031681565b81600160a060020a0381161515610eca57600080fd5b610c3e8383611465565b600760209081526000928352604080842090915290825290205460ff1681565b60045481565b610f0560003461161a565b565b60005433600160a060020a03908116911614610f2257600080fd5b6002805473ffffffffffffffffffffffffffffffffffffffff1916600160a060020a0392909216919091179055565b60005433600160a060020a03908116911614610f6c57600080fd5b600160a060020a0381161515610f8157600080fd5b60008054604051600160a060020a03808516939216917f8be0079c531659141344cd1fd0a4f28419497f9722a3daafe3b4186f6b6457e091a36000805473ffffffffffffffffffffffffffffffffffffffff1916600160a060020a0392909216919091179055565b600254600160a060020a031681565b600160a060020a03918216600090815260066020908152604080832093909416825291909152205490565b604080516c01000000000000000000000000600160a060020a0330811682028352808e1682026014840152602883018d90528b16026048820152605c8101899052607c8101889052609c8101879052905160009182918291829160029160bc80820192602092909190829003018186865af11580156110a6573d6000803e3d6000fd5b5050506040513d60208110156110bb57600080fd5b5051600160a060020a038916600090815260076020908152604080832084845290915290205490935060ff1615801561119e5750604080517f19457468657265756d205369676e6564204d6573736167653a0a3332000000008152601c8101859052815190819003603c018120600080835260208381018086529290925260ff8b1683850152606083018a9052608083018990529251600160a060020a038c169360019360a08082019493601f198101939281900390910191865af1158015611188573d6000803e3d6000fd5b50505060206040510351600160a060020a031614155b806111a857508943115b156111b65760009350611265565b6008600089600160a060020a0316600160a060020a0316815260200190815260200160002060008460001916600019168152602001908152602001600020548d0391508a8d600660008f600160a060020a0316600160a060020a0316815260200190815260200160002060008b600160a060020a0316600160a060020a03168152602001908152602001600020540281151561124e57fe5b0490508082101561126157819350611265565b8093505b5050509a9950505050505050505050565b600080600080670de0b6b3a7640000600354860281151561129357fe5b049350670de0b6b3a764000060045486028115156112ad57fe5b600254919004935060009250600160a060020a03161561138657600254604080517f1cbd0519000000000000000000000000000000000000000000000000000000008152600160a060020a03898116600483015291519190921691631cbd05199160248083019260209291908290030181600087803b15801561132f57600080fd5b505af1158015611343573d6000803e3d6000fd5b505050506040513d602081101561135957600080fd5b50519050600181141561137957600554670de0b6b3a76400009086020491505b8060021415611386578291505b600160a060020a038a8116600090815260066020908152604080832033851684529091528082208054878a019003905588831682528082208054868a018990030190556001549092168152208054850184018390039055888786028115156113ea57fe5b600160a060020a038a81166000908152600660209081526040808320938c1683529290522080549290910490910390558885880281151561142757fe5b600160a060020a03998a16600090815260066020908152604080832033909d1683529b90529990992080549190990401909755505050505050505050565b600160a060020a038083166000908152600660209081526040808320339094168352929052205481111561149857600080fd5b600160a060020a038281166000818152600660209081526040808320339095168352939052919091208054839003905515156114f057604051600160a060020a033316908290600081818185875af192505050611599565b81600160a060020a031663a9059cbb33836040518363ffffffff167c01000000000000000000000000000000000000000000000000000000000281526004018083600160a060020a0316600160a060020a0316815260200182815260200192505050602060405180830381600087803b15801561156c57600080fd5b505af1158015611580573d6000803e3d6000fd5b505050506040513d602081101561159657600080fd5b50515b15156115a457600080fd5b600160a060020a03808316600081815260066020908152604080832033959095168084529482529182902054825193845290830193909352818101849052606082019290925290517ff341246adaac6f497bc2a656f546ab9e182111d630394f0c57c710a59a2cb5679181900360800190a15050565b600160a060020a03828116600081815260066020908152604080832033909516808452948252918290208054860190819055825193845290830193909352818101849052606082019290925290517fdcbc1c05240f31ff3ad067ef1ee35ce4997762752e3a095284754544f4c709d79181900360800190a150505600a165627a7a72305820b8978c40eac5fbb4716f005194621401cbfd64df03efacb64f89f26b91a0520d0029",
  "source": "pragma solidity ^0.4.21;\r\n\r\nimport \"zeppelin-solidity/contracts/math/SafeMath.sol\";\r\nimport \"zeppelin-solidity/contracts/token/ERC20/ERC20.sol\";\r\nimport \"zeppelin-solidity/contracts/ownership/Ownable.sol\";\r\nimport \"./AccountLevels.sol\";\r\n\r\n\r\n\r\n\r\ncontract ClassicDelta is Ownable {\r\n  using SafeMath for uint256;\r\n\r\n  address public feeAccount; //the account that will receive fees\r\n  address public accountLevelsAddr; //the address of the AccountLevels contract\r\n  uint public feeMake; //percentage times (1 ether)\r\n  uint public feeTake; //percentage times (1 ether)\r\n  uint public feeRebate; //percentage times (1 ether)\r\n  mapping (address => mapping (address => uint)) public tokens; //mapping of token addresses to mapping of account balances (token=0 means Ether)\r\n  mapping (address => mapping (bytes32 => bool)) public orders; //mapping of user accounts to mapping of order hashes to booleans (true = submitted by user, equivalent to offchain signature)\r\n  mapping (address => mapping (bytes32 => uint)) public orderFills; //mapping of user accounts to mapping of order hashes to uints (amount of order that has been filled)\r\n\r\n  event Order(address tokenGet, uint amountGet, address tokenGive, uint amountGive, uint expires, uint nonce, address user);\r\n  event Cancel(address tokenGet, uint amountGet, address tokenGive, uint amountGive, uint expires, uint nonce, address user, uint8 v, bytes32 r, bytes32 s);\r\n  event Trade(address tokenGet, uint amountGet, address tokenGive, uint amountGive, address get, address give);\r\n  event Deposit(address token, address user, uint amount, uint balance);\r\n  event Withdraw(address token, address user, uint amount, uint balance);\r\n\r\n  modifier onlyToken (address token) {\r\n    require( token != 0);\r\n    _;\r\n  }\r\n\r\n  function ClassicDelta(\r\n    address feeAccount_,\r\n    address accountLevelsAddr_,\r\n    uint feeMake_,\r\n    uint feeTake_,\r\n    uint feeRebate_) public\r\n  {\r\n    feeAccount = feeAccount_;\r\n    accountLevelsAddr = accountLevelsAddr_;\r\n    feeMake = feeMake_;\r\n    feeTake = feeTake_;\r\n    feeRebate = feeRebate_;\r\n  }\r\n\r\n  function() public {\r\n    revert();\r\n  }\r\n\r\n  function changeAccountLevelsAddr(address accountLevelsAddr_) public onlyOwner {\r\n    accountLevelsAddr = accountLevelsAddr_;\r\n  }\r\n\r\n  function changeFeeAccount(address feeAccount_) public onlyOwner {\r\n    feeAccount = feeAccount_;\r\n  }\r\n\r\n  function changeFeeMake(uint feeMake_) public onlyOwner {\r\n    require (feeMake_ <= feeMake);\r\n    feeMake = feeMake_;\r\n  }\r\n\r\n  function changeFeeTake(uint feeTake_) public onlyOwner {\r\n    require (feeTake_ <= feeTake && feeTake_ >= feeRebate);\r\n    feeTake = feeTake_;\r\n  }\r\n\r\n  function changeFeeRebate(uint feeRebate_) public onlyOwner {\r\n    require (feeRebate_ >= feeRebate && feeRebate_ <= feeTake);\r\n    feeRebate = feeRebate_;\r\n  }\r\n\r\n  function commonDeposit(address token, uint value) internal {\r\n    tokens[token][msg.sender] = tokens[token][msg.sender] + value;\r\n    emit Deposit(\r\n    token,\r\n    msg.sender,\r\n    value,\r\n    tokens[token][msg.sender]);\r\n  }\r\n\r\n  function deposit() public payable {\r\n    commonDeposit(0, msg.value);\r\n  }\r\n\r\n  function commonWithdraw(address token, uint amount) internal {\r\n    require (tokens[token][msg.sender] >= amount);\r\n    tokens[token][msg.sender] = tokens[token][msg.sender] - amount;\r\n    require((token != 0)?\r\n      ERC20(token).transfer(msg.sender, amount):\r\n      // solium-disable-next-line security/no-call-value\r\n      msg.sender.call.value(amount)()\r\n    );\r\n    emit Withdraw(\r\n    token,\r\n    msg.sender,\r\n    amount,\r\n    tokens[token][msg.sender]);\r\n  }\r\n\r\n  function withdraw(uint amount) public {\r\n    commonWithdraw(0, amount);\r\n  }\r\n\r\n  function depositToken(address token, uint amount) public onlyToken(token) {\r\n    //remember to call Token(address).approve(this, amount) or this contract will not be able to do the transfer on your behalf.\r\n    require (ERC20(token).transferFrom(msg.sender, this, amount));\r\n    commonDeposit(token, amount);\r\n  }\r\n\r\n  function withdrawToken(address token, uint amount) public onlyToken(token) {\r\n    commonWithdraw(token, amount);\r\n  }\r\n\r\n  function balanceOf(address token, address user) public constant returns (uint) {\r\n    return tokens[token][user];\r\n  }\r\n\r\n  function order(\r\n    address tokenGet,\r\n    uint amountGet,\r\n    address tokenGive,\r\n    uint amountGive,\r\n    uint expires,\r\n    uint nonce) public\r\n  {\r\n    bytes32 hash = sha256(\r\n      this,\r\n      tokenGet,\r\n      amountGet,\r\n      tokenGive,\r\n      amountGive,\r\n      expires,\r\n      nonce);\r\n    orders[msg.sender][hash] = true;\r\n    emit Order(\r\n      tokenGet,\r\n      amountGet,\r\n      tokenGive,\r\n      amountGive,\r\n      expires,\r\n      nonce,\r\n      msg.sender);\r\n  }\r\n\r\n  function trade(\r\n    address tokenGet,\r\n    uint amountGet,\r\n    address tokenGive,\r\n    uint amountGive,\r\n    uint expires,\r\n    uint nonce,\r\n    address user,\r\n    uint8 v,\r\n    bytes32 r,\r\n    bytes32 s,\r\n    uint amount) public\r\n  {\r\n    //amount is in amountGet terms\r\n    bytes32 hash = sha256(\r\n      this,\r\n      tokenGet,\r\n      amountGet,\r\n      tokenGive,\r\n      amountGive,\r\n      expires,\r\n      nonce);\r\n    /* solium-disable-next-line */\r\n    require((orders[user][hash] || ecrecover(keccak256(\"\\x19Ethereum Signed Message:\\n32\", hash), v, r, s) == user) && block.number <= expires && orderFills[user][hash] + amount <= amountGet);\r\n    tradeBalances(\r\n      tokenGet,\r\n      amountGet,\r\n      tokenGive,\r\n      amountGive,\r\n      user,\r\n      amount);\r\n    orderFills[user][hash] = orderFills[user][hash] + amount;\r\n    emit Trade(\r\n      tokenGet,\r\n      amount,\r\n      tokenGive,\r\n      amountGive * amount / amountGet,\r\n      user,\r\n      msg.sender);\r\n  }\r\n\r\n  function testTrade(\r\n    address tokenGet,\r\n    uint amountGet,\r\n    address tokenGive,\r\n    uint amountGive,\r\n    uint expires,\r\n    uint nonce,\r\n    address user,\r\n    uint8 v,\r\n    bytes32 r,\r\n    bytes32 s,\r\n    uint amount,\r\n    address sender) public constant returns(bool)\r\n  {\r\n    if (\r\n      tokens[tokenGet][sender] < amount ||\r\n      availableVolume(\r\n        tokenGet,\r\n        amountGet,\r\n        tokenGive,\r\n        amountGive,\r\n        expires,\r\n        nonce,\r\n        user,\r\n        v,\r\n        r,\r\n        s) < amount\r\n    ) return false;\r\n    return true;\r\n  }\r\n\r\n  function availableVolume(\r\n    address tokenGet,\r\n    uint amountGet,\r\n    address tokenGive,\r\n    uint amountGive,\r\n    uint expires,\r\n    uint nonce,\r\n    address user,\r\n    uint8 v,\r\n    bytes32 r,\r\n    bytes32 s) public constant returns(uint)\r\n  {\r\n    bytes32 hash = sha256(\r\n      this,\r\n      tokenGet,\r\n      amountGet,\r\n      tokenGive,\r\n      amountGive,\r\n      expires,\r\n      nonce);\r\n    if (\r\n        (\r\n          !orders[user][hash] &&\r\n          ecrecover(\r\n            keccak256(\"\\x19Ethereum Signed Message:\\n32\", hash),\r\n            v,\r\n            r,\r\n            s\r\n          ) != user\r\n        ) || block.number > expires\r\n      ) return 0;\r\n    uint available1 = amountGet - orderFills[user][hash];\r\n    uint available2 = tokens[tokenGive][user] * amountGet / amountGive;\r\n    if (available1<available2)\r\n      return available1;\r\n    return available2;\r\n  }\r\n\r\n  function amountFilled(\r\n    address tokenGet,\r\n    uint amountGet,\r\n    address tokenGive,\r\n    uint amountGive,\r\n    uint expires,\r\n    uint nonce,\r\n    address user,\r\n    uint8 /*v*/,\r\n    bytes32 /*r*/,\r\n    bytes32 /*s*/) public constant returns(uint)\r\n  {\r\n    bytes32 hash = sha256(\r\n      this,\r\n      tokenGet,\r\n      amountGet,\r\n      tokenGive,\r\n      amountGive,\r\n      expires,\r\n      nonce);\r\n    return orderFills[user][hash];\r\n  }\r\n\r\n  function cancelOrder(\r\n    address tokenGet,\r\n    uint amountGet,\r\n    address tokenGive,\r\n    uint amountGive,\r\n    uint expires,\r\n    uint nonce,\r\n    uint8 v,\r\n    bytes32 r,\r\n    bytes32 s) public\r\n  {\r\n    bytes32 hash = sha256(\r\n      this,\r\n      tokenGet,\r\n      amountGet,\r\n      tokenGive,\r\n      amountGive,\r\n      expires,\r\n      nonce);\r\n    require(\r\n      orders[msg.sender][hash] || ecrecover(\r\n        keccak256(\"\\x19Ethereum Signed Message:\\n32\", hash),\r\n        v,\r\n        r,\r\n        s\r\n      ) == msg.sender\r\n    );\r\n    orderFills[msg.sender][hash] = amountGet;\r\n    emit Cancel(\r\n      tokenGet,\r\n      amountGet,\r\n      tokenGive,\r\n      amountGive,\r\n      expires,\r\n      nonce,\r\n      msg.sender,\r\n      v,\r\n      r,\r\n      s);\r\n  }\r\n\r\n  function tradeBalances(\r\n    address tokenGet,\r\n    uint amountGet,\r\n    address tokenGive,\r\n    uint amountGive,\r\n    address user,\r\n    uint amount) private\r\n  {\r\n    uint feeMakeXfer = amount * feeMake / (1 ether);\r\n    uint feeTakeXfer = amount * feeTake / (1 ether);\r\n    uint feeRebateXfer = 0;\r\n    if (accountLevelsAddr != 0x0) {\r\n      uint accountLevel = AccountLevels(accountLevelsAddr).accountLevel(user);\r\n      if (accountLevel==1)\r\n        feeRebateXfer = amount * feeRebate / (1 ether);\r\n      if (accountLevel==2)\r\n        feeRebateXfer = feeTakeXfer;\r\n    }\r\n    tokens[tokenGet][msg.sender] = tokens[tokenGet][msg.sender] - (amount + feeTakeXfer);\r\n    tokens[tokenGet][user] = tokens[tokenGet][user] + (amount + feeRebateXfer - feeMakeXfer);\r\n    tokens[tokenGet][feeAccount] = (tokens[tokenGet][feeAccount] + feeMakeXfer + feeTakeXfer - feeRebateXfer);\r\n    tokens[tokenGive][user] = (tokens[tokenGive][user] - amountGive * amount / amountGet);\r\n    tokens[tokenGive][msg.sender] = tokens[tokenGive][msg.sender] + amountGive * amount / amountGet;\r\n  }\r\n}",
  "sourcePath": "C:\\Users\\Daniel\\Blockchain UN Lab\\Classic Delta\\Smart-Contracts\\contracts\\ClassicDelta.sol",
  "compiler": {
    "name": "solc",
    "version": "0.4.23+commit.124ca40d.Emscripten.clang"
  },
  "schemaVersion": "2.0.0",
  "updatedAt": "2018-05-11T22:45:24.940Z"
}